{
  "contractName": "ProductLikes",
  "abi": [
    {
      "constant": true,
      "inputs": [
        {
          "name": "",
          "type": "uint256"
        }
      ],
      "name": "productIndex",
      "outputs": [
        {
          "name": "",
          "type": "uint256"
        }
      ],
      "payable": false,
      "stateMutability": "view",
      "type": "function",
      "signature": "0x322d5a33"
    },
    {
      "constant": true,
      "inputs": [
        {
          "name": "",
          "type": "uint256"
        }
      ],
      "name": "products",
      "outputs": [
        {
          "name": "id",
          "type": "uint256"
        },
        {
          "name": "name",
          "type": "string"
        },
        {
          "name": "likes",
          "type": "uint256"
        }
      ],
      "payable": false,
      "stateMutability": "view",
      "type": "function",
      "signature": "0x7acc0b20"
    },
    {
      "anonymous": false,
      "inputs": [
        {
          "indexed": false,
          "name": "id",
          "type": "uint256"
        },
        {
          "indexed": false,
          "name": "name",
          "type": "string"
        },
        {
          "indexed": false,
          "name": "likes",
          "type": "uint256"
        }
      ],
      "name": "ProductCreated",
      "type": "event",
      "signature": "0x418d4005ee80a6584eef7f51de08850f7f79c3e7b464f15ef3f236423d964b08"
    },
    {
      "anonymous": false,
      "inputs": [
        {
          "indexed": false,
          "name": "id",
          "type": "uint256"
        },
        {
          "indexed": false,
          "name": "likes",
          "type": "uint256"
        }
      ],
      "name": "ProductLiked",
      "type": "event",
      "signature": "0x11558687dce85a1f0b7706bb629b48449cdb8e7cb5255df9ec0a51f2f90f3007"
    },
    {
      "constant": false,
      "inputs": [
        {
          "name": "_name",
          "type": "string"
        }
      ],
      "name": "createProduct",
      "outputs": [],
      "payable": false,
      "stateMutability": "nonpayable",
      "type": "function",
      "signature": "0x02ec06be"
    },
    {
      "constant": false,
      "inputs": [
        {
          "name": "_id",
          "type": "uint256"
        }
      ],
      "name": "likeProduct",
      "outputs": [],
      "payable": false,
      "stateMutability": "nonpayable",
      "type": "function",
      "signature": "0x545be528"
    }
  ],
  "bytecode": "0x608060405234801561001057600080fd5b506106c6806100206000396000f3fe608060405260043610610062576000357c0100000000000000000000000000000000000000000000000000000000900463ffffffff16806302ec06be14610067578063322d5a331461012f578063545be5281461017e5780637acc0b20146101b9575b600080fd5b34801561007357600080fd5b5061012d6004803603602081101561008a57600080fd5b81019080803590602001906401000000008111156100a757600080fd5b8201836020820111156100b957600080fd5b803590602001918460018302840111640100000000831117156100db57600080fd5b91908080601f016020809104026020016040519081016040528093929190818152602001838380828437600081840152601f19601f82011690508083019250505050505050919291929050505061027b565b005b34801561013b57600080fd5b506101686004803603602081101561015257600080fd5b81019080803590602001909291905050506103d3565b6040518082815260200191505060405180910390f35b34801561018a57600080fd5b506101b7600480360360208110156101a157600080fd5b81019080803590602001909291905050506103eb565b005b3480156101c557600080fd5b506101f2600480360360208110156101dc57600080fd5b8101908080359060200190929190505050610524565b6040518084815260200180602001838152602001828103825284818151815260200191508051906020019080838360005b8381101561023e578082015181840152602081019050610223565b50505050905090810190601f16801561026b5780820380516001836020036101000a031916815260200191505b5094505050505060405180910390f35b60008080549050905060006060604051908101604052808381526020018481526020016000815250908060018154018082558091505090600182039060005260206000209060030201600090919290919091506000820151816000015560208201518160010190805190602001906102f49291906105f5565b506040820151816002015550505060016000805490500360016000838152602001908152602001600020819055507f418d4005ee80a6584eef7f51de08850f7f79c3e7b464f15ef3f236423d964b08818360006040518084815260200180602001838152602001828103825284818151815260200191508051906020019080838360005b83811015610393578082015181840152602081019050610378565b50505050905090810190601f1680156103c05780820380516001836020036101000a031916815260200191505b5094505050505060405180910390a15050565b60016020528060005260406000206000915090505481565b7fffffffffffffffffffffffffffffffffffffffffffffffffffffffffffffffff600160008381526020019081526020016000205414151515610496576040517f08c379a00000000000000000000000000000000000000000000000000000000081526004018080602001828103825260168152602001807f50726f6475637420646f6573206e6f742065786973740000000000000000000081525060200191505060405180910390fd5b60008060016000848152602001908152602001600020548154811015156104b957fe5b9060005260206000209060030201905080600201600081548092919060010191905055507f11558687dce85a1f0b7706bb629b48449cdb8e7cb5255df9ec0a51f2f90f3007828260020154604051808381526020018281526020019250505060405180910390a15050565b60008181548110151561053357fe5b9060005260206000209060030201600091509050806000015490806001018054600181600116156101000203166002900480601f0160208091040260200160405190810160405280929190818152602001828054600181600116156101000203166002900480156105e55780601f106105ba576101008083540402835291602001916105e5565b820191906000526020600020905b8154815290600101906020018083116105c857829003601f168201915b5050505050908060020154905083565b828054600181600116156101000203166002900490600052602060002090601f016020900481019282601f1061063657805160ff1916838001178555610664565b82800160010185558215610664579182015b82811115610663578251825591602001919060010190610648565b5b5090506106719190610675565b5090565b61069791905b8082111561069357600081600090555060010161067b565b5090565b9056fea165627a7a72305820cba22830b46ef07c43adf59056874058196f89df51e127bbfd4361040887aef90029",
  "source": "pragma solidity ^0.5.0;\r\n\r\ncontract ProductLikes {\r\n    struct Product {\r\n        uint256 id;\r\n        string name;\r\n        uint256 likes;\r\n    }\r\n\r\n    Product[] public products;\r\n\r\n    mapping(uint256 => uint256) public productIndex;\r\n\r\n    event ProductCreated(uint256 id, string name, uint256 likes);\r\n    event ProductLiked(uint256 id, uint256 likes);\r\n\r\n    function createProduct(string memory _name) public {\r\n        uint256 id = products.length;\r\n        products.push(Product(id, _name, 0));\r\n        productIndex[id] = products.length - 1;\r\n\r\n        emit ProductCreated(id, _name, 0);\r\n    }\r\n\r\n    function likeProduct(uint256 _id) public {\r\n        require(productIndex[_id] != 0xFFFFFFFFFFFFFFFFFFFFFFFFFFFFFFFFFFFFFFFFFFFFFFFFFFFFFFFFFFFFFFFF, \"Product does not exist\");\r\n\r\n        Product storage product = products[productIndex[_id]];\r\n        product.likes++;\r\n\r\n        emit ProductLiked(_id, product.likes);\r\n    }\r\n}",
  "sourcePath": "C:/Users/njain12/MarketPlace_DAPP/src/contracts/ProductLikes.sol",
  "compiler": {
    "name": "solc",
    "version": "0.5.0+commit.1d4f565a.Emscripten.clang"
  },
  "schemaVersion": "3.0.2",
  "updatedAt": "2023-05-07T20:25:46.965Z",
  "devdoc": {
    "methods": {}
  },
  "userdoc": {
    "methods": {}
  }
}